S0140000696D7261616E7375736172742E73726563F6
S11300000C942B000C9453000C9453000C94530048
S11300100C9453000C9453000C9453000C94530010
S11300200C9453000C9453000C9453000C94530000
S11300300C9453000C9425040C9456050C94530012
S11300400C9453000C9453000C9453000C945300E0
S11300500C9453007A0011241FBECFE5D8E0DEBF14
S1130060CDBF10E0A0E6B0E0E0E6FEE002C00590FF
S11300700D92A036B107D9F721E0A0E6B0E001C0A7
S11300801D92AA30B207E1F710E0CBE2D0E004C041
S11300902197FE010E940207CA32D107C9F70E94C4
S11300A055000C942E070C940000CF93DF9300D0DE
S11300B000D000D0CDB7DEB7CE0101960E948305F3
S11300C0CE0101960E94840564E670E08EE790E01C
S11300D00E945D062FEF89E698E121508040904010
S11300E0E1F700C000006CE97FEF8EE790E00E942A
S11300F05D06EACFCF92DF92EF92FF920F931F93A8
S11301000F2EFBE1CF2ED12CF02D0F2EFCE1EF2E84
S1130110F12CF02D0DE110E02EE130E04FE150E044
S113012068EC70E08EE790E00E948D050F2EF3E1FD
S1130130CF2ED12CF02D0F2EF4E1EF2EF12CF02D3B
S113014005E110E026E130E047E150E068EC70E0C2
S113015080E690E00E948D051F910F91FF90EF9033
S1130160DF90CF900895009759F46115710511F44B
S1130170B89848C16130710509F044C1B89A42C1C8
S11301808130910559F46115710511F4B9983AC19A
S11301906130710509F036C1B99A34C182309105D4
S11301A059F46115710511F4BA982CC161307105C7
S11301B009F028C1BA9A26C18330910559F4611512
S11301C0710511F4BB981EC16130710509F01AC1A3
S11301D0BB9A18C18430910559F46115710511F465
S11301E0BC9810C16130710509F00CC1BC9A0AC1F8
S11301F08530910559F46115710511F4BD9802C15A
S11302006130710509F0FEC0BD9AFCC086309105CD
S113021059F46115710511F4BE98F4C0613071058B
S113022009F0F0C0BE9AEEC08730910559F461150B
S1130230710511F4BF98E6C06130710509F0E2C0A0
S1130240BF9AE0C08830910559F46115710511F425
S11302508898D8C06130710509F0D4C0889AD2C09A
S11302608930910559F46115710511F48998CAC052
S11302706130710509F0C6C0899AC4C08A309105FD
S113028059F46115710511F48A98BCC06130710587
S113029009F0B8C08A9AB6C08B30910559F461153B
S11302A0710511F48B98AEC06130710509F0AAC0D4
S11302B08B9AA8C08C30910559F46115710511F41D
S11302C08C98A0C06130710509F09CC08C9A9AC0CA
S11302D08D30910559F46115710511F48D9892C012
S11302E06130710509F08EC08D9A8CC08E309105F5
S11302F059F46115710511F48E9884C0613071054B
S113030009F080C08E9A7EC08F30910559F4611532
S1130310710511F48F9876C06130710509F072C0CF
S11303208F9A70C08031910559F46115710511F4EB
S1130330A09808956130710509F0CDC0A09A089580
S11303408131910559F46115710511F4A19808954D
S11303506130710509F0BFC0A19A089582319105F9
S113036059F46115710511F4A2980895613071056D
S113037009F0B1C0A29A08958331910559F4611529
S1130380710511F4A39808956130710509F0A3C0B3
S1130390A39A08958431910559F46115710511F4F6
S11303A0A49808956130710509F095C0A49A089540
S11303B08531910559F46115710511F4A5980895D5
S11303C06130710509F087C0A59A089586319105B9
S11303D059F46115710511F4A698089561307105F9
S11303E009F079C0A69A08958731910559F46115E9
S11303F0710511F4A79808956130710509F06BC077
S1130400A79A08958831910559F46115710511F47D
S1130410D79808956130710509F05DC0D79A0895A1
S11304208931910559F46115710511F4D69808952F
S11304306130710509F04FC0D69A08958A3191054B
S113044059F46115710511F4D59808956130710559
S113045009F041C0D59A08958B31910551F4611585
S1130460710511F4D498089561307105A1F5D49AF9
S113047008958C31910551F46115710511F4D398E7
S113048008956130710539F5D39A08958D31910538
S113049051F46115710511F4D29808956130710514
S11304A0D1F4D29A08958E31910551F461157105F4
S11304B011F4D19808956130710569F4D19A0895C1
S11304C04F9749F46115710511F4D098089561307E
S11304D0710509F4D09A0895009759F461157105CE
S11304E011F4C098D8C06130710509F0D4C0C09A25
S11304F0D2C08130910559F46115710511F4C19888
S1130500CAC06130710509F0C6C0C19AC4C0823046
S1130510910559F46115710511F4C298BCC061309C
S1130520710509F0B8C0C29AB6C08330910559F478
S11305306115710511F4C398AEC06130710509F0FD
S1130540AAC0C39AA8C08430910559F461157105F5
S113055011F4C498A0C06130710509F09CC0C49A1C
S11305609AC08530910559F46115710511F4C59847
S113057092C06130710509F08EC0C59A8CC0863076
S1130580910559F46115710511F4C69884C0613060
S1130590710509F080C0C69A7EC08730910559F470
S11305A06115710511F4C79876C06130710509F0C1
S11305B072C0C79A70C08830910559F461157105ED
S11305C011F49098D8C06130710509F0D4C0909AA4
S11305D0D2C08930910559F46115710511F49198CF
S11305E0CAC06130710509F0C6C0919AC4C08A308E
S11305F0910559F46115710511F49298BCC06130EC
S1130600710509F0B8C0929AB6C08B30910559F4BF
S11306106115710511F49398AEC06130710509F04C
S1130620AAC0939AA8C08C30910559F4611571053C
S113063011F49498A0C06130710509F09CC0949A9B
S11306409AC08D30910559F46115710511F495988E
S113065092C06130710509F08EC0959A8CC08E30BD
S1130660910559F46115710511F4969884C06130AF
S1130670710509F080C0969A7EC08F30910559F4B7
S11306806115710511F4979876C06130710509F010
S113069072C0979A70C08031910559F46115710543
S11306A011F4A89808956130710509F0CDC0A89A95
S11306B008958131910559F46115710511F4A998D2
S11306C008956130710509F0BFC0A99A0895823177
S11306D0910559F46115710511F4AA9808956130D2
S11306E0710509F0B1C0AA9A08958331910559F4AE
S11306F06115710511F4AB9808956130710509F025
S1130700A3C0AB9A08958431910559F4611571051C
S113071011F4AC9808956130710509F095C0AC9A54
S113072008958531910559F46115710511F4AD9859
S113073008956130710509F087C0AD9A0895863136
S1130740910559F46115710511F4AE98089561305D
S1130750710509F079C0AE9A08958731910559F46D
S11307606115710511F4AF9808956130710509F0B0
S11307706BC0AF9A08958831910559F461157105DC
S113078011F4DF9808956130710509F05DC0DF9AB6
S113079008958931910559F46115710511F4DE98B4
S11307A008956130710509F04FC0DE9A08958A31C9
S11307B0910559F46115710511F4DD9808956130BE
S11307C0710509F041C0DD9A08958B31910551F40A
S11307D06115710511F4DC98089561307105A1F576
S11307E0DC9A08958C31910551F46115710511F469
S11307F0DB9808956130710539F5DB9A08958D31E0
S1130800910551F46115710511F4DA980895613078
S11308107105D1F4DA9A08958E31910551F4611578
S1130820710511F4D99808956130710569F4D99A64
S113083008954F9749F46115710511F4D8980895F6
S11308406130710509F4D89A08951F920F920FB67A
S11308500F9211242F933F934F935F936F937F9342
S11308608F939F93AF93BF93EF93FF93CF93DF93B4
S1130870CDB7DEB72897DEBFCDBF6CB1E6EEF0E0B2
S113088020A131A1C90101968F71992742A153A1D9
S11308908417950741F0F901EA51FF4F6083909363
S11308A0070180930601F894E6EEF0E082A193A19B
S11308B020A131A12817390771F0FC01EA51FF4F3B
S11308C0208101968F7199279093090180930801E3
S11308D0822F90E002C08FEF9FEF9F838E838E81E3
S11308E09F81019609F4C7C08E819F81888768859E
S11308F0E2ECF0E020A131A1C90101968F719927A2
S113090042A153A18417950741F0F901EE53FF4F1B
S113091060839093E3008093E20080919C00909127
S11309209D00892B59F488858C3309F089C081E0B6
S113093090E090939D0080939C0082C088858E33C4
S113094009F062C010929D0010929C00FE01319645
S113095085E0DF011D928A95E9F7EEE9F0E060A1F8
S113096071A182A193A16817790709F441C0FC0120
S1130970E256FF4F208101968F7199279093C10011
S11309808093C00050E040E0A0E0B0E2453000F5C4
S11309905931F0F4233271F4442349F0543039F4DA
S11309A0E1E0F0E0EC0FFD1FE40FF11DB0835F5FA9
S11309B04A2F0EC0543049F4E1E0F0E0EC0FFD1F83
S11309C0E40FF11D20834F5F03C0553009F44F5FDE
S11309D06817790729F49093C1008093C00008C078
S11309E0FC01E256FF4F208101968F719927CECFEB
S11309F0CE0101960E9408078C9A8837910511F45C
S1130A00949A1EC012BA1CC080919C0090919D00C3
S1130A10892BB1F06885EEE9F0E020A131A1C9018C
S1130A2001968F71992742A153A18417950741F02C
S1130A30F901E256FF4F60839093BF008093BE009C
S1130A40E6EEF0E082A193A120A131A12817390795
S1130A5071F0FC01EA51FF4F208101968F719927B3
S1130A609093090180930801822F90E002C08FEFD8
S1130A709FEF9F838E83559A789428960FB6F894A7
S1130A80DEBF0FBECDBFDF91CF91FF91EF91BF913C
S1130A90AF919F918F917F916F915F914F913F9112
S1130AA02F910F900FBE0F901F9018951F920F92C9
S1130AB00FB60F9211242F933F938F939F93EF932D
S1130AC0FF93E2ECF0E082A193A120A131A12817C9
S1130AD0390769F0FC01EE53FF4F208101968F71B5
S1130AE099279093E5008093E4002CB901C05598B0
S1130AF0FF91EF919F918F913F912F910F900FBE96
S1130B000F901F901895089510BC8FEC89B988E94F
S1130B108AB98EE880BD78940895CF92DF92EF92DF
S1130B20FF920F931F93CF93DF93EC01CA011F86AB
S1130B301E861B821A82198218821A8E1B8E1C8EA4
S1130B401D8E7B876A87DD82CC82598B488B3B8BD9
S1130B502A8B1D8B0C8BFF8AEE8A61E070E00E9469
S1130B60B30061E070E08A899B890E94B30061E070
S1130B7070E08C899D890E94B30061E070E08E89E9
S1130B809F890E94B30061E070E08C819D810E9486
S1130B90B30060E070E08C819D810E946C02198E2C
S1130BA0188E84E090E09D878C87DF91CF911F9110
S1130BB00F91FF90EF90DF90CF900895CF93DF9344
S1130BC0FC01248535852430310509F073C0EC011E
S1130BD06130710529F11CF4672B49F06BC0623058
S1130BE07105B9F16330710509F44CC063C061E06B
S1130BF070E0808991890E946C0260E070E08A89CB
S1130C009B890E946C0261E070E08C899D890E943E
S1130C106C0260E070E08E899F890E946C024AC079
S1130C2060E070E0808991890E946C0261E070E06C
S1130C308A899B890E946C0261E070E08C899D899D
S1130C400E946C0260E070E08E899F890E946C02B1
S1130C5031C060E070E0808991890E946C0261E09B
S1130C6070E08A899B890E946C0260E070E08C8944
S1130C709D890E946C0261E070E08E899F890E94C8
S1130C806C0218C061E070E0808991890E946C0256
S1130C9060E070E08A899B890E946C0260E070E0E9
S1130CA08C899D890E946C0261E070E08E899F8925
S1130CB00E946C02DF91CF910895EF92FF920F93FF
S1130CC01F93CF93DF93EC017B018B01772324F4F3
S1130CD000271127061B170B61E070E08C819D81B2
S1130CE00E946C021E141F0424F481E090E0998396
S1130CF08883FF2014F419821882101611060CF050
S1130D004CC00F2EFAE0EF2EF12CF02D8FE39FE173
S1130D100197F1F700C0000088819981019769F477
S1130D208E859F8501969F878E872A853B858217AE
S1130D30930781F41F861E860DC08E859F85892B9F
S1130D4021F48A859B859F878E878E859F85019751
S1130D509F878E87015011098C859D85059751F4D5
S1130D608E859F85B7010E94DA06BC01CE010E94E0
S1130D70DE050FC06E857F8563707078772334F449
S1130D80615071096C6F7F6F6F5F7F4FCE010E945E
S1130D90DE050115110509F0B9CF60E070E08C8122
S1130DA09D810E946C02DF91CF911F910F91FF9062
S1130DB0EF90089597FB072E16F4009407D077FD63
S1130DC009D00E94EE0607FC05D03EF4909581956B
S1130DD09F4F0895709561957F4F0895AA1BBB1B83
S1130DE051E107C0AA1FBB1FA617B70710F0A61B27
S1130DF0B70B881F991F5A95A9F780959095BC0148
S1130E00CD010895EE0FFF1F0590F491E02D099494
S1130E10FC0188279927E89421912032E9F32930AD
S1130E2010F02E30C8F32B3241F02D3239F468948F
S1130E3004C00E942607820F911D219120532A305D
S1130E40C0F31EF4909581959F4F08957AE0979F83
S1130E50902D879F802D910D11240895F894FFCF34
S9030000FC
